{
  "contractName": "ConvertLib",
  "abi": [
    {
      "inputs": [
        {
          "internalType": "uint256",
          "name": "amount",
          "type": "uint256"
        },
        {
          "internalType": "uint256",
          "name": "conversionRate",
          "type": "uint256"
        }
      ],
      "name": "convert",
      "outputs": [
        {
          "internalType": "uint256",
          "name": "convertedAmount",
          "type": "uint256"
        }
      ],
      "stateMutability": "pure",
      "type": "function"
    }
  ],
  "bytecode": "0x60e0610034600b8282823980515f1a60731461002857634e487b7160e01b5f525f60045260245ffd5b305f52607381538281f3fe73000000000000000000000000000000000000000030146080604052600436106032575f3560e01c806396e4ee3d146036575b5f80fd5b604560413660046069565b6057565b60405190815260200160405180910390f35b5f606082846088565b90505b92915050565b5f80604083850312156079575f80fd5b50508035926020909101359150565b8082028115828204841417606357634e487b7160e01b5f52601160045260245ffdfea2646970667358221220ae8df175f28afa882c2d34eec1b7095411424980c36f4fce1c62487d8c7dc70064736f6c63430008140033",
  "immutableReferences": {},
  "source": "// SPDX-License-Identifier: MIT\npragma solidity ^0.8.13;\n\n// A library is like a contract with reusable code, which can be called by other contracts.\n// Deploying common code can reduce gas costs.\nlibrary ConvertLib{\n\tfunction convert(uint256 amount, uint256 conversionRate) public pure returns (uint256 convertedAmount)\n\t{\n\t\treturn amount * conversionRate;\n\t}\n}\n",
  "sourcePath": "C:\\ZAIDAN's Folder\\PRIVATE Folder\\Spartan Project\\MetaCoin\\contracts\\ConvertLib.sol",
  "compiler": {
    "name": "solc",
    "version": "0.8.20+commit.a1b79de6.Emscripten.clang"
  },
  "schemaVersion": "3.4.16",
  "updatedAt": "2025-11-01T19:34:21.052Z",
  "devdoc": {
    "kind": "dev",
    "methods": {},
    "version": 1
  },
  "userdoc": {
    "kind": "user",
    "methods": {},
    "version": 1
  }
}