{
  "contractName": "LeetTokenSender",
  "abi": [
    {
      "inputs": [],
      "stateMutability": "nonpayable",
      "type": "constructor"
    },
    {
      "inputs": [
        {
          "internalType": "uint256",
          "name": "allowanceGiven",
          "type": "uint256"
        },
        {
          "internalType": "uint256",
          "name": "required",
          "type": "uint256"
        }
      ],
      "name": "AllowanceTooLow",
      "type": "error"
    },
    {
      "inputs": [],
      "name": "AmountZero",
      "type": "error"
    },
    {
      "inputs": [],
      "name": "EmptyTokenList",
      "type": "error"
    },
    {
      "inputs": [],
      "name": "EthValueZero",
      "type": "error"
    },
    {
      "inputs": [],
      "name": "TokenZeroAddress",
      "type": "error"
    },
    {
      "inputs": [],
      "name": "TransferFailed",
      "type": "error"
    },
    {
      "anonymous": false,
      "inputs": [
        {
          "indexed": true,
          "internalType": "address",
          "name": "from",
          "type": "address"
        },
        {
          "indexed": false,
          "internalType": "uint256",
          "name": "amount",
          "type": "uint256"
        }
      ],
      "name": "DepositETH",
      "type": "event"
    },
    {
      "anonymous": false,
      "inputs": [
        {
          "indexed": true,
          "internalType": "address",
          "name": "from",
          "type": "address"
        },
        {
          "indexed": true,
          "internalType": "address",
          "name": "token",
          "type": "address"
        },
        {
          "indexed": false,
          "internalType": "uint256",
          "name": "amount",
          "type": "uint256"
        }
      ],
      "name": "DepositToken",
      "type": "event"
    },
    {
      "anonymous": false,
      "inputs": [
        {
          "indexed": true,
          "internalType": "address",
          "name": "oldOwner",
          "type": "address"
        },
        {
          "indexed": true,
          "internalType": "address",
          "name": "newOwner",
          "type": "address"
        }
      ],
      "name": "OwnerChanged",
      "type": "event"
    },
    {
      "anonymous": false,
      "inputs": [
        {
          "indexed": true,
          "internalType": "address",
          "name": "from",
          "type": "address"
        },
        {
          "indexed": true,
          "internalType": "address",
          "name": "token",
          "type": "address"
        },
        {
          "indexed": false,
          "internalType": "uint256",
          "name": "amount",
          "type": "uint256"
        }
      ],
      "name": "SentToOwner",
      "type": "event"
    },
    {
      "inputs": [
        {
          "internalType": "address",
          "name": "",
          "type": "address"
        }
      ],
      "name": "ethBalances",
      "outputs": [
        {
          "internalType": "uint256",
          "name": "",
          "type": "uint256"
        }
      ],
      "stateMutability": "view",
      "type": "function"
    },
    {
      "inputs": [],
      "name": "owner",
      "outputs": [
        {
          "internalType": "address",
          "name": "",
          "type": "address"
        }
      ],
      "stateMutability": "view",
      "type": "function"
    },
    {
      "inputs": [
        {
          "internalType": "address",
          "name": "",
          "type": "address"
        },
        {
          "internalType": "address",
          "name": "",
          "type": "address"
        }
      ],
      "name": "tokenBalances",
      "outputs": [
        {
          "internalType": "uint256",
          "name": "",
          "type": "uint256"
        }
      ],
      "stateMutability": "view",
      "type": "function"
    },
    {
      "stateMutability": "payable",
      "type": "receive"
    },
    {
      "inputs": [],
      "name": "depositETH",
      "outputs": [],
      "stateMutability": "payable",
      "type": "function"
    },
    {
      "inputs": [
        {
          "internalType": "address",
          "name": "token",
          "type": "address"
        },
        {
          "internalType": "uint256",
          "name": "amount",
          "type": "uint256"
        }
      ],
      "name": "depositToken",
      "outputs": [],
      "stateMutability": "nonpayable",
      "type": "function"
    },
    {
      "inputs": [
        {
          "internalType": "address[]",
          "name": "tokenAddresses",
          "type": "address[]"
        }
      ],
      "name": "sendAllToOwner",
      "outputs": [],
      "stateMutability": "nonpayable",
      "type": "function"
    },
    {
      "inputs": [
        {
          "internalType": "address",
          "name": "user",
          "type": "address"
        }
      ],
      "name": "getETHBalance",
      "outputs": [
        {
          "internalType": "uint256",
          "name": "",
          "type": "uint256"
        }
      ],
      "stateMutability": "view",
      "type": "function"
    },
    {
      "inputs": [
        {
          "internalType": "address",
          "name": "token",
          "type": "address"
        },
        {
          "internalType": "address",
          "name": "user",
          "type": "address"
        }
      ],
      "name": "getTokenBalance",
      "outputs": [
        {
          "internalType": "uint256",
          "name": "",
          "type": "uint256"
        }
      ],
      "stateMutability": "view",
      "type": "function"
    },
    {
      "inputs": [
        {
          "internalType": "address",
          "name": "newOwner",
          "type": "address"
        }
      ],
      "name": "changeOwner",
      "outputs": [],
      "stateMutability": "nonpayable",
      "type": "function"
    }
  ],
  "bytecode": "0x608060405234801561000f575f80fd5b505f80546001600160a01b03191633179055610a408061002e5f395ff3fe608060405260043610610087575f3560e01c80634dbf6c5a116100575780634dbf6c5a146101bc5780638da5cb5b146101f2578063a6f9dae114610228578063c489744b14610247578063f6326fb314610266575f80fd5b806314f6a7d61461010a578063338b5dea1461012b5780633bb66a7b1461014a5780633cfba0e314610191575f80fd5b3661010657345f036100ac57604051637e7c3a1d60e11b815260040160405180910390fd5b335f90815260016020526040812080543492906100ca908490610892565b909155505060405134815233907fced5d8bf10823804603bba066e4f53aa6e8f6f4be68bf0114cf7a0e52183e4e99060200160405180910390a2005b5f80fd5b348015610115575f80fd5b506101296101243660046108a5565b61026e565b005b348015610136575f80fd5b5061012961014536600461092f565b610503565b348015610155575f80fd5b5061017e610164366004610957565b6001600160a01b03165f9081526001602052604090205490565b6040519081526020015b60405180910390f35b34801561019c575f80fd5b5061017e6101ab366004610957565b60016020525f908152604090205481565b3480156101c7575f80fd5b5061017e6101d6366004610977565b600260209081525f928352604080842090915290825290205481565b3480156101fd575f80fd5b505f54610210906001600160a01b031681565b6040516001600160a01b039091168152602001610188565b348015610233575f80fd5b50610129610242366004610957565b6106fd565b348015610252575f80fd5b5061017e610261366004610977565b6107d8565b610129610804565b801580156102885750335f90815260016020526040902054155b156102a6576040516336e7020f60e01b815260040160405180910390fd5b335f90815260016020526040902054801561037557335f90815260016020526040808220829055815490516001600160a01b039091169083908381818185875af1925050503d805f8114610315576040519150601f19603f3d011682016040523d82523d5f602084013e61031a565b606091505b505090508061033c576040516312171d8360e31b815260040160405180910390fd5b6040518281525f9033907faa80e14d2ecf9307e3dc5b394f8367a45e506f9f88b01cc81c9e7fcc7f66837e9060200160405180910390a3505b5f5b828110156104fd575f848483818110610392576103926109a8565b90506020020160208101906103a79190610957565b90506001600160a01b0381166103d057604051635d1a467d60e11b815260040160405180910390fd5b6001600160a01b0381165f90815260026020908152604080832033845290915290205480156104e8576001600160a01b038281165f8181526002602090815260408083203384529091528082208290558154905163a9059cbb60e01b815293166004840152602483018490529163a9059cbb906044016020604051808303815f875af1158015610462573d5f803e3d5ffd5b505050506040513d601f19601f8201168201806040525081019061048691906109bc565b9050806104a6576040516312171d8360e31b815260040160405180910390fd5b6040518281526001600160a01b0384169033907faa80e14d2ecf9307e3dc5b394f8367a45e506f9f88b01cc81c9e7fcc7f66837e9060200160405180910390a3505b505080806104f5906109db565b915050610377565b50505050565b6001600160a01b03821661052a57604051635d1a467d60e11b815260040160405180910390fd5b805f0361054a576040516365e52d5160e11b815260040160405180910390fd5b604051636eb1769f60e11b81523360048201523060248201525f906001600160a01b0384169063dd62ed3e90604401602060405180830381865afa158015610594573d5f803e3d5ffd5b505050506040513d601f19601f820116820180604052508101906105b891906109f3565b9050818110156105ea5760405163b7f077b960e01b815260048101829052602481018390526044015b60405180910390fd5b6040516323b872dd60e01b8152336004820152306024820152604481018390525f906001600160a01b038516906323b872dd906064016020604051808303815f875af115801561063c573d5f803e3d5ffd5b505050506040513d601f19601f8201168201806040525081019061066091906109bc565b905080610680576040516312171d8360e31b815260040160405180910390fd5b6001600160a01b0384165f908152600260209081526040808320338452909152812080548592906106b2908490610892565b90915550506040518381526001600160a01b0385169033907f4b3f81827ede20c81afbf1bb77b954afcdcae24d391d99042310cb1d9210dd579060200160405180910390a350505050565b5f546001600160a01b031633146107425760405162461bcd60e51b81526020600482015260096024820152682737ba1037bbb732b960b91b60448201526064016105e1565b6001600160a01b0381166107895760405162461bcd60e51b815260206004820152600e60248201526d2d32b937903732bb9037bbb732b960911b60448201526064016105e1565b5f80546001600160a01b038381166001600160a01b0319831681178455604051919092169283917fb532073b38c83145e3e5135377a08bf9aab55bc0fd7c1179cd4fb995d2a5159c9190a35050565b6001600160a01b038083165f908152600260209081526040808320938516835292905220545b92915050565b345f0361082457604051637e7c3a1d60e11b815260040160405180910390fd5b335f9081526001602052604081208054349290610842908490610892565b909155505060405134815233907fced5d8bf10823804603bba066e4f53aa6e8f6f4be68bf0114cf7a0e52183e4e99060200160405180910390a2565b634e487b7160e01b5f52601160045260245ffd5b808201808211156107fe576107fe61087e565b5f80602083850312156108b6575f80fd5b823567ffffffffffffffff808211156108cd575f80fd5b818501915085601f8301126108e0575f80fd5b8135818111156108ee575f80fd5b8660208260051b8501011115610902575f80fd5b60209290920196919550909350505050565b80356001600160a01b038116811461092a575f80fd5b919050565b5f8060408385031215610940575f80fd5b61094983610914565b946020939093013593505050565b5f60208284031215610967575f80fd5b61097082610914565b9392505050565b5f8060408385031215610988575f80fd5b61099183610914565b915061099f60208401610914565b90509250929050565b634e487b7160e01b5f52603260045260245ffd5b5f602082840312156109cc575f80fd5b81518015158114610970575f80fd5b5f600182016109ec576109ec61087e565b5060010190565b5f60208284031215610a03575f80fd5b505191905056fea2646970667358221220bed39ae6294b895147bb9b599e95e561966bdb1ee6f217c01f5c65daf9fcf1a764736f6c63430008140033",
  "immutableReferences": {},
  "source": "// SPDX-License-Identifier: MIT\npragma solidity ^0.8.13;\n\n// ...existing code...\ninterface IERC20 {\n    function transfer(address to, uint256 amount) external returns (bool);\n    function transferFrom(address from, address to, uint256 amount) external returns (bool);\n    function balanceOf(address account) external view returns (uint256);\n    function allowance(address owner, address spender) external view returns (uint256);\n}\n// ...existing code...\n\n// Custom errors (hemat gas)\nerror AmountZero();\nerror EthValueZero();\nerror AllowanceTooLow(uint256 allowanceGiven, uint256 required);\nerror TokenZeroAddress();\nerror TransferFailed();\nerror EmptyTokenList();\n\ncontract LeetTokenSender {\n    address public owner; // Contract Owner\n    mapping(address => uint256) public ethBalances; // Track ETH deposit per user\n    mapping(address => mapping(address => uint256)) public tokenBalances; // token => user => amount\n\n    event DepositETH(address indexed from, uint256 amount);\n    event DepositToken(address indexed from, address indexed token, uint256 amount);\n    event SentToOwner(address indexed from, address indexed token, uint256 amount);\n    event OwnerChanged(address indexed oldOwner, address indexed newOwner);\n\n    constructor() {\n        owner = msg.sender;\n    }\n\n    // Receive plain ETH\n    receive() external payable {\n        if (msg.value == 0) revert EthValueZero();\n        ethBalances[msg.sender] += msg.value;\n        emit DepositETH(msg.sender, msg.value);\n    }\n\n    // Explicit deposit ETH\n    function depositETH() external payable {\n        if (msg.value == 0) revert EthValueZero();\n        ethBalances[msg.sender] += msg.value;\n        emit DepositETH(msg.sender, msg.value);\n    }\n\n    // Deposit approved ERC-20\n    function depositToken(address token, uint256 amount) external {\n        if (token == address(0)) revert TokenZeroAddress();\n        if (amount == 0) revert AmountZero();\n        uint256 allowed = IERC20(token).allowance(msg.sender, address(this));\n        if (allowed < amount) revert AllowanceTooLow(allowed, amount);\n\n        bool ok = IERC20(token).transferFrom(msg.sender, address(this), amount);\n        if (!ok) revert TransferFailed();\n\n        tokenBalances[token][msg.sender] += amount;\n        emit DepositToken(msg.sender, token, amount);\n    }\n\n    // Kirim seluruh saldo (ETH + daftar token) milik caller ke owner\n    function sendAllToOwner(address[] calldata tokenAddresses) external {\n        if (tokenAddresses.length == 0 && ethBalances[msg.sender] == 0) {\n            revert EmptyTokenList();\n        }\n\n        // ETH\n        uint256 ethAmount = ethBalances[msg.sender];\n        if (ethAmount > 0) {\n            ethBalances[msg.sender] = 0;\n            (bool sent, ) = payable(owner).call{value: ethAmount}(\"\");\n            if (!sent) revert TransferFailed();\n            emit SentToOwner(msg.sender, address(0), ethAmount);\n        }\n\n        // Tokens\n        for (uint256 i = 0; i < tokenAddresses.length; i++) {\n            address token = tokenAddresses[i];\n            if (token == address(0)) revert TokenZeroAddress();\n            uint256 tokenAmount = tokenBalances[token][msg.sender];\n            if (tokenAmount > 0) {\n                tokenBalances[token][msg.sender] = 0;\n                bool ok = IERC20(token).transfer(owner, tokenAmount);\n                if (!ok) revert TransferFailed();\n                emit SentToOwner(msg.sender, token, tokenAmount);\n            }\n        }\n    }\n\n    // Getter\n    function getETHBalance(address user) external view returns (uint256) {\n        return ethBalances[user];\n    }\n\n    function getTokenBalance(address token, address user) external view returns (uint256) {\n        return tokenBalances[token][user];\n    }\n\n    // Opsional: ganti owner\n    function changeOwner(address newOwner) external {\n        require(msg.sender == owner, \"Not owner\");\n        require(newOwner != address(0), \"Zero new owner\");\n        address old = owner;\n        owner = newOwner;\n        emit OwnerChanged(old, newOwner);\n    }\n}",
  "sourcePath": "C:\\Users\\lanas\\MetaCoin\\contracts\\MetaCoin.sol",
  "compiler": {
    "name": "solc",
    "version": "0.8.20+commit.a1b79de6.Emscripten.clang"
  },
  "schemaVersion": "3.4.16",
  "updatedAt": "2025-09-27T01:25:02.849Z",
  "devdoc": {
    "kind": "dev",
    "methods": {},
    "version": 1
  },
  "userdoc": {
    "kind": "user",
    "methods": {},
    "version": 1
  }
}