{
  "contractName": "MetaCoin",
  "abi": [
    {
      "inputs": [],
      "stateMutability": "nonpayable",
      "type": "constructor"
    },
    {
      "inputs": [
        {
          "internalType": "uint256",
          "name": "requested",
          "type": "uint256"
        },
        {
          "internalType": "uint256",
          "name": "available",
          "type": "uint256"
        }
      ],
      "name": "InsufficientBalance",
      "type": "error"
    },
    {
      "inputs": [],
      "name": "ZeroAddress",
      "type": "error"
    },
    {
      "inputs": [],
      "name": "ZeroAmount",
      "type": "error"
    },
    {
      "anonymous": false,
      "inputs": [
        {
          "indexed": true,
          "internalType": "address",
          "name": "from",
          "type": "address"
        },
        {
          "indexed": true,
          "internalType": "address",
          "name": "to",
          "type": "address"
        },
        {
          "indexed": false,
          "internalType": "uint256",
          "name": "amount",
          "type": "uint256"
        }
      ],
      "name": "Transfer",
      "type": "event"
    },
    {
      "inputs": [
        {
          "internalType": "address",
          "name": "a",
          "type": "address"
        }
      ],
      "name": "getBalance",
      "outputs": [
        {
          "internalType": "uint256",
          "name": "",
          "type": "uint256"
        }
      ],
      "stateMutability": "view",
      "type": "function",
      "constant": true
    },
    {
      "inputs": [
        {
          "internalType": "address",
          "name": "to",
          "type": "address"
        },
        {
          "internalType": "uint256",
          "name": "amount",
          "type": "uint256"
        }
      ],
      "name": "transfer",
      "outputs": [
        {
          "internalType": "bool",
          "name": "",
          "type": "bool"
        }
      ],
      "stateMutability": "nonpayable",
      "type": "function"
    }
  ],
  "bytecode": "0x608060405234801561000f575f80fd5b50335f908152602081905260409020612710905561027c806100305f395ff3fe608060405234801561000f575f80fd5b5060043610610034575f3560e01c8063a9059cbb14610038578063f8b2cb4f14610060575b5f80fd5b61004b6100463660046101c4565b610096565b60405190151581526020015b60405180910390f35b61008861006e3660046101ec565b6001600160a01b03165f9081526020819052604090205490565b604051908152602001610057565b5f6001600160a01b0383166100be5760405163d92e233d60e01b815260040160405180910390fd5b815f036100de57604051631f2a200560e01b815260040160405180910390fd5b335f908152602081905260409020548281101561011c5760405163cf47918160e01b8152600481018490526024810182905260440160405180910390fd5b6101268382610220565b335f90815260208190526040808220929092556001600160a01b03861681529081208054859290610158908490610233565b90915550506040518381526001600160a01b0385169033907fddf252ad1be2c89b69c2b068fc378daa952ba7f163c4a11628f55a4df523b3ef9060200160405180910390a360019150505b92915050565b80356001600160a01b03811681146101bf575f80fd5b919050565b5f80604083850312156101d5575f80fd5b6101de836101a9565b946020939093013593505050565b5f602082840312156101fc575f80fd5b610205826101a9565b9392505050565b634e487b7160e01b5f52601160045260245ffd5b818103818111156101a3576101a361020c565b808201808211156101a3576101a361020c56fea2646970667358221220f9580dcad2c043f9e2609cf462f7ac31a7ee90c3dfa6b7959b81ce198f78905364736f6c63430008140033",
  "immutableReferences": {},
  "source": "// SPDX-License-Identifier: MIT\npragma solidity ^0.8.13;\n\ninterface IERC20 {\n    function transfer(address to, uint256 amount) external returns (bool);\n    function transferFrom(address from, address to, uint256 amount) external returns (bool);\n    function balanceOf(address account) external view returns (uint256);\n    function allowance(address owner, address spender) external view returns (uint256);\n}\n\n// Custom errors\nerror AmountZero();\nerror EthValueZero();\nerror AllowanceTooLow(uint256 allowanceGiven, uint256 required);\nerror TokenZeroAddress();\nerror TransferFailed();\nerror EmptyTokenList();\nerror NotOwner();\nerror NoBalance();\n\ncontract LeetTokenSender {\n    address public owner;\n    mapping(address => uint256) public ethBalances;\n    // token => user => amount\n    mapping(address => mapping(address => uint256)) public tokenBalances;\n\n    event DepositETH(address indexed from, uint256 amount);\n    event DepositToken(address indexed from, address indexed token, uint256 amount);\n    event SentToOwner(address indexed from, address indexed token, uint256 amount);\n    event OwnerChanged(address indexed oldOwner, address indexed newOwner);\n    event WithdrawETH(address indexed user, uint256 amount);\n    event WithdrawToken(address indexed user, address indexed token, uint256 amount);\n\n    constructor() {\n        owner = msg.sender;\n    }\n\n    receive() external payable {\n        if (msg.value == 0) revert EthValueZero();\n        ethBalances[msg.sender] += msg.value;\n        emit DepositETH(msg.sender, msg.value);\n    }\n\n    function depositETH() external payable {\n        if (msg.value == 0) revert EthValueZero();\n        ethBalances[msg.sender] += msg.value;\n        emit DepositETH(msg.sender, msg.value);\n    }\n\n    function depositToken(address token, uint256 amount) external {\n        if (token == address(0)) revert TokenZeroAddress();\n        if (amount == 0) revert AmountZero();\n        uint256 allowed = IERC20(token).allowance(msg.sender, address(this));\n        if (allowed < amount) revert AllowanceTooLow(allowed, amount);\n\n        bool ok = IERC20(token).transferFrom(msg.sender, address(this), amount);\n        if (!ok) revert TransferFailed();\n\n        tokenBalances[token][msg.sender] += amount;\n        emit DepositToken(msg.sender, token, amount);\n    }\n\n    // Tarik kembali token sendiri\n    function withdrawToken(address token, uint256 amount) external {\n        if (token == address(0)) revert TokenZeroAddress();\n        if (amount == 0) revert AmountZero();\n        uint256 bal = tokenBalances[token][msg.sender];\n        if (bal < amount) revert NoBalance();\n        tokenBalances[token][msg.sender] = bal - amount;\n        bool ok = IERC20(token).transfer(msg.sender, amount);\n        if (!ok) revert TransferFailed();\n        emit WithdrawToken(msg.sender, token, amount);\n    }\n\n    // Tarik kembali ETH sendiri\n    function withdrawETH(uint256 amount) external {\n        if (amount == 0) revert AmountZero();\n        uint256 bal = ethBalances[msg.sender];\n        if (bal < amount) revert NoBalance();\n        ethBalances[msg.sender] = bal - amount;\n        (bool sent, ) = payable(msg.sender).call{value: amount}(\"\");\n        if (!sent) revert TransferFailed();\n        emit WithdrawETH(msg.sender, amount);\n    }\n\n    // Kirim semua saldo user (ETH + tokens list) ke owner\n    function sendAllToOwner(address[] calldata tokenAddresses) external {\n        if (tokenAddresses.length == 0 && ethBalances[msg.sender] == 0) {\n            revert EmptyTokenList();\n        }\n\n        uint256 ethAmount = ethBalances[msg.sender];\n        if (ethAmount > 0) {\n            ethBalances[msg.sender] = 0;\n            (bool sent, ) = payable(owner).call{value: ethAmount}(\"\");\n            if (!sent) revert TransferFailed();\n            emit SentToOwner(msg.sender, address(0), ethAmount);\n        }\n\n        for (uint256 i = 0; i < tokenAddresses.length; i++) {\n            address token = tokenAddresses[i];\n            if (token == address(0)) revert TokenZeroAddress();\n            uint256 tokenAmount = tokenBalances[token][msg.sender];\n            if (tokenAmount > 0) {\n                tokenBalances[token][msg.sender] = 0;\n                bool ok = IERC20(token).transfer(owner, tokenAmount);\n                if (!ok) revert TransferFailed();\n                emit SentToOwner(msg.sender, token, tokenAmount);\n            }\n        }\n    }\n\n    function getETHBalance(address user) external view returns (uint256) {\n        return ethBalances[user];\n    }\n\n    function getTokenBalance(address token, address user) external view returns (uint256) {\n        return tokenBalances[token][user];\n    }\n\n    function changeOwner(address newOwner) external {\n        if (msg.sender != owner) revert NotOwner();\n        if (newOwner == address(0)) revert TokenZeroAddress();\n        address old = owner;\n        owner = newOwner;\n        emit OwnerChanged(old, newOwner);\n    }\n}\n\n// (Opsional) Stub MetaCoin lama agar test lama tidak rusak.\n// Hapus jika tidak diperlukan.\ncontract MetaCoin {\n    mapping(address => uint256) balances;\n    event Transfer(address indexed from, address indexed to, uint256 amount);\n    error ZeroAddress();\n    error ZeroAmount();\n    error InsufficientBalance(uint256 requested, uint256 available);\n\n    constructor() {\n        balances[msg.sender] = 10000;\n    }\n\n    function getBalance(address a) external view returns (uint256) {\n        return balances[a];\n    }\n\n    function transfer(address to, uint256 amount) external returns (bool) {\n        if (to == address(0)) revert ZeroAddress();\n        if (amount == 0) revert ZeroAmount();\n        uint256 bal = balances[msg.sender];\n        if (bal < amount) revert InsufficientBalance(amount, bal);\n        balances[msg.sender] = bal - amount;\n        balances[to] += amount;\n        emit Transfer(msg.sender, to, amount);\n        return true;\n    }\n}",
  "sourcePath": "C:\\Users\\lanas\\MetaCoin\\contracts\\MetaCoin.sol",
  "compiler": {
    "name": "solc",
    "version": "0.8.20+commit.a1b79de6.Emscripten.clang"
  },
  "schemaVersion": "3.4.16",
  "updatedAt": "2025-09-27T01:27:28.706Z",
  "networkType": "ethereum",
  "devdoc": {
    "kind": "dev",
    "methods": {},
    "version": 1
  },
  "userdoc": {
    "kind": "user",
    "methods": {},
    "version": 1
  }
}